{
  "abi": [
    {
      "inputs": [
        {
          "internalType": "address",
          "name": "from",
          "type": "address"
        },
        {
          "internalType": "address",
          "name": "to",
          "type": "address"
        },
        {
          "internalType": "uint256",
          "name": "duration",
          "type": "uint256"
        }
      ],
      "name": "addBond",
      "outputs": [
        {
          "internalType": "uint256",
          "name": "",
          "type": "uint256"
        }
      ],
      "stateMutability": "nonpayable",
      "type": "function"
    },
    {
      "inputs": [
        {
          "internalType": "uint256",
          "name": "bondID",
          "type": "uint256"
        },
        {
          "internalType": "address[]",
          "name": "assets",
          "type": "address[]"
        },
        {
          "internalType": "uint256[]",
          "name": "amounts",
          "type": "uint256[]"
        }
      ],
      "name": "batchUpdateBondERC20",
      "outputs": [],
      "stateMutability": "nonpayable",
      "type": "function"
    },
    {
      "inputs": [
        {
          "internalType": "uint256",
          "name": "bondID",
          "type": "uint256"
        },
        {
          "internalType": "address[]",
          "name": "assets",
          "type": "address[]"
        },
        {
          "internalType": "uint256[]",
          "name": "tokenIDs",
          "type": "uint256[]"
        }
      ],
      "name": "batchUpdateBondERC721",
      "outputs": [],
      "stateMutability": "nonpayable",
      "type": "function"
    },
    {
      "inputs": [
        {
          "internalType": "uint256",
          "name": "bondID",
          "type": "uint256"
        }
      ],
      "name": "cancelBond",
      "outputs": [],
      "stateMutability": "nonpayable",
      "type": "function"
    },
    {
      "inputs": [
        {
          "internalType": "uint256",
          "name": "bondID",
          "type": "uint256"
        }
      ],
      "name": "performBondERC20",
      "outputs": [],
      "stateMutability": "nonpayable",
      "type": "function"
    },
    {
      "inputs": [
        {
          "internalType": "uint256",
          "name": "bondID",
          "type": "uint256"
        }
      ],
      "name": "performBondERC721",
      "outputs": [],
      "stateMutability": "nonpayable",
      "type": "function"
    },
    {
      "inputs": [
        {
          "internalType": "uint256",
          "name": "bondID",
          "type": "uint256"
        },
        {
          "internalType": "uint256",
          "name": "duration",
          "type": "uint256"
        }
      ],
      "name": "updateBondDuration",
      "outputs": [],
      "stateMutability": "nonpayable",
      "type": "function"
    },
    {
      "inputs": [
        {
          "internalType": "uint256",
          "name": "bondID",
          "type": "uint256"
        },
        {
          "internalType": "address",
          "name": "asset",
          "type": "address"
        },
        {
          "internalType": "uint256",
          "name": "amount",
          "type": "uint256"
        }
      ],
      "name": "updateBondERC20",
      "outputs": [],
      "stateMutability": "nonpayable",
      "type": "function"
    },
    {
      "inputs": [
        {
          "internalType": "uint256",
          "name": "bondID",
          "type": "uint256"
        },
        {
          "internalType": "address",
          "name": "asset",
          "type": "address"
        },
        {
          "internalType": "uint256",
          "name": "tokenID",
          "type": "uint256"
        }
      ],
      "name": "updateBondERC721",
      "outputs": [],
      "stateMutability": "nonpayable",
      "type": "function"
    }
  ],
  "bytecode": {
    "object": "0x608060405234801561001057600080fd5b50610e8a806100206000396000f3fe608060405234801561001057600080fd5b50600436106100935760003560e01c80638a6c93c1116100665780638a6c93c1146100e6578063a534b9b3146100f9578063c17c129a1461010c578063c340e2821461011f578063ffaa6e2d1461014457600080fd5b80630ea7a7191461009857806311eed971146100ad5780632f3ec42a146100c05780634a8118e9146100d3575b600080fd5b6100ab6100a6366004610b93565b610157565b005b6100ab6100bb366004610c5e565b610282565b6100ab6100ce366004610b93565b610325565b6100ab6100e1366004610c5e565b610418565b6100ab6100f4366004610c77565b610579565b6100ab610107366004610c5e565b61066e565b6100ab61011a366004610c77565b610891565b61013261012d366004610cac565b610986565b60405190815260200160405180910390f35b6100ab610152366004610cd8565b610a13565b60008381526001602052604090205483906001600160a01b03166101965760405162461bcd60e51b815260040161018d90610cfa565b60405180910390fd5b60008481526001602052604090205484906001600160a01b031633146101ce5760405162461bcd60e51b815260040161018d90610d28565b825184511461021f5760405162461bcd60e51b815260206004820152601d60248201527f41727261797327206c656e6774687320646f206e6f74206d617463682e000000604482015260640161018d565b60005b845181101561027a576102688686838151811061024157610241610d5f565b602002602001015186848151811061025b5761025b610d5f565b6020026020010151610891565b8061027281610d8b565b915050610222565b505050505050565b60008181526001602052604090205481906001600160a01b03166102b85760405162461bcd60e51b815260040161018d90610cfa565b60008281526001602052604090205482906001600160a01b031633146102f05760405162461bcd60e51b815260040161018d90610d28565b5050600090815260016020908152604080832080546001600160a01b0319908116909155600290925290912080549091169055565b60008381526001602052604090205483906001600160a01b031661035b5760405162461bcd60e51b815260040161018d90610cfa565b60008481526001602052604090205484906001600160a01b031633146103935760405162461bcd60e51b815260040161018d90610d28565b82518451146103e45760405162461bcd60e51b815260206004820152601d60248201527f41727261797327206c656e6774687320646f206e6f74206d617463682e000000604482015260640161018d565b60005b845181101561027a576104068686838151811061024157610241610d5f565b8061041081610d8b565b9150506103e7565b60008181526001602052604090205481906001600160a01b031661044e5760405162461bcd60e51b815260040161018d90610cfa565b6000828152600260205260409020546001600160a01b03163314801561048257506000828152600360205260409020544210155b61049e5760405162461bcd60e51b815260040161018d90610da4565b60015b600083815260076020908152604080832083805290915290205481116102f057600083815260066020908152604080832084845282528083205486845260018352818420546002845282852054600785528386206001600160a01b039384168088529552948390205492516323b872dd60e01b81529082166004820152931660248401526044830152906323b872dd90606401600060405180830381600087803b15801561054e57600080fd5b505af1158015610562573d6000803e3d6000fd5b50505050808061057190610d8b565b9150506104a1565b60008381526001602052604090205483906001600160a01b03166105af5760405162461bcd60e51b815260040161018d90610cfa565b60008481526001602052604090205484906001600160a01b031633146105e75760405162461bcd60e51b815260040161018d90610d28565b60008581526007602090815260408083206001600160a01b0388168452909152808220859055818052812080549161061e83610d8b565b9091555050506000938452505060066020908152604080842060078352818520858052835281852054855290915290912080546001600160a01b0319166001600160a01b03909216919091179055565b60008181526001602052604090205481906001600160a01b03166106a45760405162461bcd60e51b815260040161018d90610cfa565b6000828152600260205260409020546001600160a01b0316331480156106d857506000828152600360205260409020544210155b6106f45760405162461bcd60e51b815260040161018d90610da4565b60015b600083815260056020908152604080832083805290915290205481116102f057600083815260056020908152604080832060048084528285208686528452828520546001600160a01b039081168087529285528386205489875260019095528386205493516370a0823160e01b8152931690830152919291906370a0823190602401602060405180830381865afa158015610796573d6000803e3d6000fd5b505050506040513d601f19601f820116820180604052508101906107ba9190610de6565b905060008183106107cb57816107cd565b825b60008781526004602081815260408084208985528252808420548b855260018352818520546002909352938190205490516323b872dd60e01b81526001600160a01b039283169381019390935281166024830152604482018490529293509116906323b872dd906064016020604051808303816000875af1158015610856573d6000803e3d6000fd5b505050506040513d601f19601f8201168201806040525081019061087a9190610dff565b50505050808061088990610d8b565b9150506106f7565b60008381526001602052604090205483906001600160a01b03166108c75760405162461bcd60e51b815260040161018d90610cfa565b60008481526001602052604090205484906001600160a01b031633146108ff5760405162461bcd60e51b815260040161018d90610d28565b60008581526005602090815260408083206001600160a01b0388168452909152808220859055818052812080549161093683610d8b565b9091555050506000938452505060046020908152604080842060058352818520858052835281852054855290915290912080546001600160a01b0319166001600160a01b03909216919091179055565b60008054815260016020908152604080832080546001600160a01b038089166001600160a01b0319928316179092558454855260029093529083208054918616919092161790556109d78242610e28565b60008054815260036020526040812091909155805490806109f783610d8b565b91905055506001600054610a0b9190610e41565b949350505050565b60008281526001602052604090205482906001600160a01b0316610a495760405162461bcd60e51b815260040161018d90610cfa565b60008381526001602052604090205483906001600160a01b03163314610a815760405162461bcd60e51b815260040161018d90610d28565b610a8b8342610e28565b6000805481526003602052604090205550505050565b634e487b7160e01b600052604160045260246000fd5b604051601f8201601f1916810167ffffffffffffffff81118282101715610ae057610ae0610aa1565b604052919050565b600067ffffffffffffffff821115610b0257610b02610aa1565b5060051b60200190565b80356001600160a01b0381168114610b2357600080fd5b919050565b600082601f830112610b3957600080fd5b81356020610b4e610b4983610ae8565b610ab7565b82815260059290921b84018101918181019086841115610b6d57600080fd5b8286015b84811015610b885780358352918301918301610b71565b509695505050505050565b600080600060608486031215610ba857600080fd5b8335925060208085013567ffffffffffffffff80821115610bc857600080fd5b818701915087601f830112610bdc57600080fd5b8135610bea610b4982610ae8565b81815260059190911b8301840190848101908a831115610c0957600080fd5b938501935b82851015610c2e57610c1f85610b0c565b82529385019390850190610c0e565b965050506040870135925080831115610c4657600080fd5b5050610c5486828701610b28565b9150509250925092565b600060208284031215610c7057600080fd5b5035919050565b600080600060608486031215610c8c57600080fd5b83359250610c9c60208501610b0c565b9150604084013590509250925092565b600080600060608486031215610cc157600080fd5b610cca84610b0c565b9250610c9c60208501610b0c565b60008060408385031215610ceb57600080fd5b50508035926020909101359150565b6020808252601490820152732137b732103237b2b9903737ba1032bc34b9ba1760611b604082015260600190565b6020808252601d908201527f4f6e6c79206f776e65722063616e20757064617465206120626f6e642e000000604082015260600190565b634e487b7160e01b600052603260045260246000fd5b634e487b7160e01b600052601160045260246000fd5b600060018201610d9d57610d9d610d75565b5060010190565b60208082526022908201527f596f752063616e6e6f74207265747269657665207468697320626f6e642079656040820152613a1760f11b606082015260800190565b600060208284031215610df857600080fd5b5051919050565b600060208284031215610e1157600080fd5b81518015158114610e2157600080fd5b9392505050565b80820180821115610e3b57610e3b610d75565b92915050565b81810381811115610e3b57610e3b610d7556fea264697066735822122088a3565249019339436d885abfff4ea13d9d735861010980fa67684dcbc8e03d64736f6c63430008110033",
    "linkReferences": {}
  },
  "methodIdentifiers": {
    "addBond(address,address,uint256)": "c340e282",
    "batchUpdateBondERC20(uint256,address[],uint256[])": "0ea7a719",
    "batchUpdateBondERC721(uint256,address[],uint256[])": "2f3ec42a",
    "cancelBond(uint256)": "11eed971",
    "performBondERC20(uint256)": "a534b9b3",
    "performBondERC721(uint256)": "4a8118e9",
    "updateBondDuration(uint256,uint256)": "ffaa6e2d",
    "updateBondERC20(uint256,address,uint256)": "c17c129a",
    "updateBondERC721(uint256,address,uint256)": "8a6c93c1"
  },
  "id": 21
}