{
  "abi": [
    {
      "inputs": [
        {
          "internalType": "address",
          "name": "from",
          "type": "address"
        },
        {
          "internalType": "address",
          "name": "to",
          "type": "address"
        }
      ],
      "name": "addBond",
      "outputs": [],
      "stateMutability": "nonpayable",
      "type": "function"
    },
    {
      "inputs": [
        {
          "internalType": "uint256",
          "name": "bondID",
          "type": "uint256"
        }
      ],
      "name": "performBondERC20",
      "outputs": [],
      "stateMutability": "nonpayable",
      "type": "function"
    },
    {
      "inputs": [
        {
          "internalType": "uint256",
          "name": "bondID",
          "type": "uint256"
        },
        {
          "internalType": "address",
          "name": "asset",
          "type": "address"
        },
        {
          "internalType": "uint256",
          "name": "amount",
          "type": "uint256"
        }
      ],
      "name": "updateBondERC20",
      "outputs": [],
      "stateMutability": "nonpayable",
      "type": "function"
    }
  ],
  "bytecode": {
    "object": "0x608060405234801561001057600080fd5b5061058f806100206000396000f3fe608060405234801561001057600080fd5b50600436106100415760003560e01c8063921e18a214610046578063a534b9b31461005b578063c17c129a1461006e575b600080fd5b610059610054366004610488565b610081565b005b6100596100693660046104bb565b6100de565b61005961007c3660046104d4565b610286565b60008054815260016020908152604080832080546001600160a01b038088166001600160a01b031992831617909255845485526002909352908320805491851691909216179055805490806100d583610509565b91905055505050565b6000818152600160205260409020546001600160a01b03161580159061011a57506000818152600260205260409020546001600160a01b031615155b6101625760405162461bcd60e51b81526020600482015260146024820152732137b732103237b2b9903737ba1032bc34b9ba1760611b60448201526064015b60405180910390fd5b60005b60008281526004602090815260408083208380529091529020548110156102525760008281526003602090815260408083208484528252808320548584526001835281842054600284528285205460048086528487206001600160a01b039485168089529652958490205493516323b872dd60e01b815291831695820195909552931660248401526044830152906323b872dd906064016020604051808303816000875af115801561021b573d6000803e3d6000fd5b505050506040513d601f19601f8201168201806040525081019061023f9190610530565b508061024a81610509565b915050610165565b50600090815260016020908152604080832080546001600160a01b0319908116909155600290925290912080549091169055565b6000838152600160205260409020546001600160a01b0316158015906102c257506000838152600260205260409020546001600160a01b031615155b6103055760405162461bcd60e51b81526020600482015260146024820152732137b732103237b2b9903737ba1032bc34b9ba1760611b6044820152606401610159565b6000838152600160205260409020546001600160a01b0316331461036b5760405162461bcd60e51b815260206004820152601d60248201527f4f6e6c79206f776e65722063616e20757064617465206120626f6e642e0000006044820152606401610159565b60008381526004602090815260408083206001600160a01b038616845290915280822083905581805281208054916103a283610509565b909155505060008381526003602090815260408083206004808452828520858052845282852054855290835281842080546001600160a01b0319166001600160a01b0388811691821790925588865260029094529382902054915163095ea7b360e01b81529190931692810192909252602482018390529063095ea7b3906044016020604051808303816000875af1158015610442573d6000803e3d6000fd5b505050506040513d601f19601f820116820180604052508101906104669190610530565b50505050565b80356001600160a01b038116811461048357600080fd5b919050565b6000806040838503121561049b57600080fd5b6104a48361046c565b91506104b26020840161046c565b90509250929050565b6000602082840312156104cd57600080fd5b5035919050565b6000806000606084860312156104e957600080fd5b833592506104f96020850161046c565b9150604084013590509250925092565b60006001820161052957634e487b7160e01b600052601160045260246000fd5b5060010190565b60006020828403121561054257600080fd5b8151801515811461055257600080fd5b939250505056fea2646970667358221220654f3f0643d6ec92ca6381297e0b4955c05c075151fff8bb04f04cd781ac301a64736f6c63430008110033",
    "linkReferences": {}
  },
  "methodIdentifiers": {
    "addBond(address,address)": "921e18a2",
    "performBondERC20(uint256)": "a534b9b3",
    "updateBondERC20(uint256,address,uint256)": "c17c129a"
  },
  "id": 1
}